:100000000C9458000C94BD030C9496030C9480003F
:100010000C9480000C9480000C9480000C94800060
:100020000C9480000C9480000C9480000C94800050
:100030000C9480000C9480000C9480000C94800040
:100040000C944C030C9480000C941A030C94F4024E
:100050000C9480000C9480000C9480000C94800020
:100060000C9480000C948000000000002300260007
:10007000290000000000250028002B0000000000DF
:10008000240027002A0004040404040404040202D7
:100090000202020203030303030301020408102007
:1000A0004080010204081020010204081020E4032B
:1000B00011241FBECFEFD8E0DEBFCDBF11E0A0E01E
:1000C000B1E0E2E5FBE002C005900D92A633B10776
:1000D000D9F722E0A6E3B1E001C01D92AA33B2072E
:1000E000E1F710E0C8E5D0E004C02197FE010E94CE
:1000F0009C05C735D107C9F70E942E040C94A705AB
:100100000C940000CF93DF9390E0FC01E656FF4F84
:100110002491FC01EA57FF4F84918823C1F090E0BD
:10012000880F991FFC01E458FF4FC591D491FC0141
:10013000EE58FF4FA591B4919FB7F8943881822F64
:10014000809583238883EC91E22BEC939FBFDF9112
:10015000CF910895CF92DF92EF92FF920F931F936A
:10016000CF93DF936C017A018B01C0E0D0E0CE1514
:10017000DF0589F0D8016D918D01D601ED91FC91DB
:100180000190F081E02DC6010995892B11F47E01C3
:1001900002C02196ECCFC701DF91CF911F910F9143
:1001A000FF90EF90DF90CF900895FC01918D828DAC
:1001B000981761F0828DDF01A80FB11D5D968C91BB
:1001C000928D9F5F9F73928F90E008958FEF9FEFC6
:1001D0000895FC01918D828D981731F0828DE80F82
:1001E000F11D858D90E008958FEF9FEF0895FC013C
:1001F000918D228D892F90E0805C9F4F821B910909
:100200008F739927089581E691E00E94F70021E01D
:10021000892B09F420E0822F0895FC01848DDF01F1
:10022000A80FB11DA35ABF4F2C91848D90E0019669
:100230008F739927848FA689B7892C93A089B18958
:100240008C9180648C93938D848D981306C0028862
:10025000F389E02D80818F7D80830895EF92FF9256
:100260000F931F93CF93DF93EC0181E0888F9B8DD9
:100270008C8D981305C0E889F989808185FD24C09B
:10028000F62E0B8D10E00F5F1F4F0F731127E02E1E
:100290008C8DE8120CC00FB607FCFACFE889F989FB
:1002A000808185FFF5CFCE010E940D01F1CF8B8DAE
:1002B000FE01E80FF11DE35AFF4FF0820B8FEA8930
:1002C000FB898081806207C0EE89FF896083E889AD
:1002D000F98980818064808381E090E0DF91CF9113
:1002E0001F910F91FF90EF900895CF93DF93EC0152
:1002F000888D8823C9F0EA89FB89808185FD05C046
:10030000A889B9898C9186FD0FC00FB607FCF5CF7F
:10031000808185FFF2CFA889B9898C9185FFEDCFC7
:10032000CE010E940D01E7CFDF91CF91089580E0CB
:1003300090E0892B29F00E94030181110C940000A8
:1003400008950895DC01ED91FD918081ED91FD917D
:100350009081ED91FD916C9163708E2309F0646042
:100360009F2309F06860EFEBF1E0E60FF11D659562
:1003700065956D936D917D918D919D91099423C0AB
:100380001AC012C016C010C01EC009C014C013C0CD
:1003900006C019C009C00DC007C00DC014C062500E
:1003A0007040804090400BC0615070408040904051
:1003B00006C06E5F01C06F5F7F4F8F4F9F4F9E9350
:1003C0008E937E936E9308958091420190914301A4
:1003D0000C94A20180914001909141010C94A201E2
:1003E000009769F0FC0101900020E9F73197AF0117
:1003F000481B590BBC0181E691E00C94AA0080E0F7
:1004000090E008958F929F92AF92BF920F931F93A7
:10041000CF93DF93CDB7DEB7A1970FB6F894DEBFC9
:100420000FBECDBF19A2423008F44AE08E010F5D25
:100430001F4F842E912CA12CB12CA50194010E9458
:100440006B05E62FB901CA0101501109EA3014F415
:10045000E05D01C0E95CD801EC93232B242B252B14
:1004600061F7C8010E94F001A1960FB6F894DEBFB3
:100470000FBECDBFDF91CF911F910F91BF90AF9075
:100480009F908F900895CF92DF92EF92FF92CF933B
:10049000DF936B017C01E0916101F09162010190B9
:1004A000F081E02D6DE281E691E00995EC0166278F
:1004B0007727CB016C197D098E099F094AE00E94BC
:1004C00002028C0F9D1FDF91CF91FF90EF90DF9084
:1004D000CF9008950E94A2058230A1F0833029F5C3
:1004E000709343016093420184EE91E09093030185
:1004F0008093020180916900837F8460809369000A
:10050000E99A11C070934101609340018AEE91E035
:100510009093010180930001809169008C7F81603C
:1005200080936900E89A81E0089580E008950F9330
:100530001F93CF93DF93EC01062F142F862F0E9479
:100540008200812F0E948200802F90E0FC01EA57F8
:10055000FF4FE491F0E0EE0FFF1FE859FF4FA59128
:10056000B491B983A883FC01E656FF4F84918C8334
:10057000212F30E0F901EA57FF4F9491E92FF0E085
:10058000EE0FFF1FE859FF4F459154915B834A835B
:10059000F901E656FF4FE491ED831F821886198614
:1005A0001A86EBE3FFE13197F1F7EC91E82381E064
:1005B00009F480E0FA0120819D81922309F0826094
:1005C0008E83BE01802F0E946C028B87BE01812F1B
:1005D0000E946C022B8590E0820F911D8B87DF912A
:1005E000CF911F910F9108951F920F920FB60F9206
:1005F00011242F933F934F935F936F937F938F9328
:100600009F93AF93BF93EF93FF9381E691E00E9496
:100610000D01FF91EF91BF91AF919F918F917F91CC
:100620006F915F914F913F912F910F900FBE0F905F
:100630001F9018951F920F920FB60F9211242F93AF
:100640008F939F93EF93FF93E0917101F09172016B
:100650008081E0917701F091780182FD12C0908154
:1006600080917A018F5F8F7320917B01821751F007
:10067000E0917A01F0E0EF59FE4F958F80937A0177
:1006800001C08081FF91EF919F918F912F910F90E9
:100690000FBE0F901F9018951F920F920FB60F92DA
:1006A00011242F933F938F939F93AF93BF93809188
:1006B000490190914A01A0914B01B0914C013091B8
:1006C000480123E0230F2D3720F40196A11DB11D11
:1006D00005C026E8230F0296A11DB11D20934801F5
:1006E0008093490190934A01A0934B01B0934C0130
:1006F0008091440190914501A0914601B09147013C
:100700000196A11DB11D8093440190934501A093D2
:100710004601B0934701BF91AF919F918F913F9157
:100720002F910F900FBE0F901F9018951F920F9250
:100730000FB60F9211242F933F934F935F936F93B4
:100740007F938F939F93AF93BF93EF93FF93E0912A
:100750000201F09103010995FF91EF91BF91AF91D3
:100760009F918F917F916F915F914F913F912F91C9
:100770000F900FBE0F901F9018951F920F920FB6FB
:100780000F9211242F933F934F935F936F937F9317
:100790008F939F93AF93BF93EF93FF93E0910001EB
:1007A000F09101010995FF91EF91BF91AF919F9158
:1007B0008F917F916F915F914F913F912F910F900A
:1007C0000FBE0F901F901895E1E6F1E013821282A0
:1007D00088EE93E0A0E0B0E084839583A683B7839E
:1007E00088E091E09183808385EC90E09587848711
:1007F00084EC90E09787868780EC90E0918B808BEB
:1008000081EC90E0938B828B82EC90E0958B848BD3
:1008100086EC90E0978B868B118E128E138E148E41
:1008200044E062E08EEF91E00E94970248E067E0CA
:100830008AE092E00E9497024BE06AE086E192E053
:100840000E9497024DE06CE082E292E00E949702E3
:1008500041E060E08EE292E00C949702789484B5D7
:10086000826084BD84B5816084BD85B5826085BDAC
:1008700085B5816085BD80916E00816080936E003A
:10088000109281008091810082608093810080912C
:1008900081008160809381008091800081608093DD
:1008A00080008091B10084608093B1008091B0009D
:1008B00081608093B00080917A00846080937A0098
:1008C00080917A00826080937A0080917A008160C2
:1008D00080937A0080917A00806880937A001092E9
:1008E000C100E0917101F091720182E08083E0919A
:1008F0006D01F0916E011082E0916F01F091700135
:1009000083E2808310927901E0917501F091760184
:1009100086E08083E0917301F091740180818061B1
:100920008083E0917301F0917401808188608083FD
:10093000E0917301F0917401808180688083E0917F
:100940007301F091740180818F7D8083412C62E07E
:10095000562E612C712C5EEF252E51E0352EE101D3
:10096000C12CD12C760186018B85823028F4F89435
:10097000CE010E94A20101C0F8948F809884A984BE
:10098000BA847894000F111F000F111FF801E35B68
:10099000FE4F80819181A281B3810396A11DB11D7B
:1009A00088159905AA05BB0564F080819181A28113
:1009B000B3810397A109B10988169906AA06BB0657
:1009C00044F4B7FE41C0F8941F82188619861A862F
:1009D00078942C968FEFC81AD80AE80AF80AE2E051
:1009E000CA33DE0709F0BFCF81E691E00E94F7002D
:1009F000892B39F181E691E00E94D50083E291E0F4
:100A00000E94F00180E291E00E94F00180E090E01D
:100A1000F894F10117821086118612867894FC01F1
:100A2000EE0FFF1FEE0FFF1FE35BFE4F10821182E0
:100A3000128213820196FCE02F0E311C8530910545
:100A400039F70E94970187CF21E0821622E09206B3
:100A5000A104B10434F0F8944F82588669867A86EE
:100A6000B7CFF8948F829886A986BA867894F801D1
:100A7000E35BFE4F80829182A282B38284E191E0A7
:100A80000E94F0014AE0C701B6010E9402028CE117
:100A900091E00E94F001AFE7B0E0A50194010E944F
:100AA000600539E095958795779567953A95D1F7E3
:100AB0004AE00E94020280E291E00E94F00189CFA8
:100AC0000E948D05A59F900DB49F900DA49F800D51
:100AD000911D11240895A1E21A2EAA1BBB1BFD0132
:100AE0000DC0AA1FBB1FEE1FFF1FA217B307E4070D
:100AF000F50720F0A21BB30BE40BF50B661F771F65
:100B0000881F991F1A9469F7609570958095909544
:100B10009B01AC01BD01CF010895A29FB001B39F1D
:100B2000C001A39F700D811D1124911DB29F700DF6
:100B3000811D1124911D0895EE0FFF1F0590F49162
:100B4000E02D099481E090E0F8940C94A705F894C6
:020B5000FFCFD5
:100B5200A101A101000000002E01AA00F700D500AA
:100B6200E9007501526F746172792000203D200006
:100B72000D0A005265736574206B6E6F6220746F8C
:060B8200207A65726F008D
:107E0000112484B714BE81FFF0D085E080938100F7
:107E100082E08093C00088E18093C10086E0809377
:107E2000C20080E18093C4008EE0C9D0259A86E02C
:107E300020E33CEF91E0309385002093840096BBD3
:107E4000B09BFECF1D9AA8958150A9F7CC24DD24C4
:107E500088248394B5E0AB2EA1E19A2EF3E0BF2EE7
:107E6000A2D0813461F49FD0082FAFD0023811F036
:107E7000013811F484E001C083E08DD089C08234E0
:107E800011F484E103C0853419F485E0A6D080C0E4
:107E9000853579F488D0E82EFF2485D0082F10E0AE
:107EA000102F00270E291F29000F111F8ED06801E7
:107EB0006FC0863521F484E090D080E0DECF843638
:107EC00009F040C070D06FD0082F6DD080E0C81688
:107ED00080E7D80618F4F601B7BEE895C0E0D1E017
:107EE00062D089930C17E1F7F0E0CF16F0E7DF06D8
:107EF00018F0F601B7BEE89568D007B600FCFDCFD4
:107F0000A601A0E0B1E02C9130E011968C91119780
:107F100090E0982F8827822B932B1296FA010C0160
:107F200087BEE89511244E5F5F4FF1E0A038BF0790
:107F300051F7F601A7BEE89507B600FCFDCF97BE46
:107F4000E89526C08437B1F42ED02DD0F82E2BD052
:107F50003CD0F601EF2C8F010F5F1F4F84911BD097
:107F6000EA94F801C1F70894C11CD11CFA94CF0C13
:107F7000D11C0EC0853739F428D08EE10CD085E9AC
:107F80000AD08FE07ACF813511F488E018D01DD067
:107F900080E101D065CF982F8091C00085FFFCCF94
:107FA0009093C60008958091C00087FFFCCF809118
:107FB000C00084FD01C0A8958091C6000895E0E648
:107FC000F0E098E1908380830895EDDF803219F02E
:107FD00088E0F5DFFFCF84E1DECF1F93182FE3DFCA
:107FE0001150E9F7F2DF1F91089580E0E8DFEE27F6
:047FF000FF270994CA
:027FFE00040479
:0400000300007E007B
:00000001FF