:100000000C9462000C9433040C940C040C948A003D
:100010000C948A000C948A000C948A000C948A0038
:100020000C948A000C948A000C948A000C948A0028
:100030000C948A000C948A000C948A000C948A0018
:100040000C94C2030C948A000C9490030C946A03E1
:100050000C948A000C948A000C948A000C948A00F8
:100060000C948A000C948A000000000023002600F3
:10007000290000000000240027002A0000000000E2
:10008000250028002B0004040404040404040202D4
:100090000202020203030303030301020408102007
:1000A0004080010204081020010204081020000012
:1000B0000008000201000003040700000000000027
:1000C00000005A0411241FBECFEFD8E0DEBFCDBF21
:1000D00011E0A0E0B1E0EEE5FDE002C005900D9278
:1000E000AC32B107D9F722E0ACE2B1E001C01D9219
:1000F000A632B207E1F710E0C2E6D0E004C02197D3
:10010000FE010E94A206C136D107C9F70E94A404CD
:100110000C94AD060C940000CF92DF92EF92FF9208
:100120000F931F93CF93DF936C017A018B01C0E093
:10013000D0E0CE15DF0589F0D8016D918D01D60193
:10014000ED91FC910190F081E02DC6010995892B7C
:1001500011F47E0102C02196ECCFC701DF91CF914F
:100160001F910F91FF90EF90DF90CF900895FC01C9
:10017000918D828D981761F0828DDF01A80FB11DDE
:100180005D968C91928D9F5F9F73928F90E0089502
:100190008FEF9FEF0895FC01918D828D981731F0BC
:1001A000828DE80FF11D858D90E008958FEF9FEF10
:1001B0000895FC01918D228D892F90E0805C9F4FE6
:1001C000821B91098F73992708958DE491E00E9415
:1001D000D90021E0892B09F420E0822F0895FC0149
:1001E000848DDF01A80FB11DA35ABF4F2C91848DC0
:1001F00090E001968F739927848FA689B7892C93F5
:10020000A089B1898C9180648C93938D848D98138F
:1002100006C00288F389E02D80818F7D8083089558
:10022000EF92FF920F931F93CF93DF93EC0181E046
:10023000888F9B8D8C8D981305C0E889F989808102
:1002400085FD24C0F62E0B8D10E00F5F1F4F0F733E
:100250001127E02E8C8DE8120CC00FB607FCFACFE8
:10026000E889F989808185FFF5CFCE010E94EF00F2
:10027000F1CF8B8DFE01E80FF11DE35AFF4FF082A5
:100280000B8FEA89FB898081806207C0EE89FF8934
:100290006083E889F98980818064808381E090E0CF
:1002A000DF91CF911F910F91FF90EF900895CF9321
:1002B000DF93EC01888D8823C9F0EA89FB8980816E
:1002C00085FD05C0A889B9898C9186FD0FC00FB640
:1002D00007FCF5CF808185FFF2CFA889B9898C9181
:1002E00085FFEDCFCE010E94EF00E7CFDF91CF91E8
:1002F000089580E090E0892B29F00E94E5008111AB
:100300000C940000089590E0FC01E255FF4F3491F9
:10031000FC01E656FF4F2491FC01EA57FF4FE491A0
:10032000EE2309F43BC0332339F1333091F038F434
:100330003130A9F0323001F584B58F7D12C03730ED
:1003400091F03830A1F03430B9F4809180008F7D85
:1003500003C0809180008F77809380000DC084B5AA
:100360008F7784BD09C08091B0008F7703C08091E2
:10037000B0008F7D8093B000F0E0EE0FFF1FE458D7
:10038000FF4FA591B4918FB7F894EC91611103C020
:1003900020952E2301C02E2B2C938FBF0895CF9331
:1003A000DF9390E0FC01E656FF4F2491FC01EA57F1
:1003B000FF4F8491882361F190E0880F991FFC0121
:1003C000EE58FF4FC591D491FC01E458FF4FA59121
:1003D000B491611109C09FB7F89488812095822358
:1003E0008883EC912E230BC0623061F49FB7F894A0
:1003F0003881822F809583238883EC912E2B2C9338
:100400009FBF06C08FB7F894E8812E2B28838FBF3B
:10041000DF91CF9108951F93CF93DF93182FEB01B6
:1004200061E00E94CF01209711F460E004C0CF3F4B
:10043000D10539F461E0812FDF91CF911F910C94A8
:100440008301E12FF0E0E255FF4FE491E330F9F052
:1004500048F4E130B9F0E230A1F584B5806284BDA2
:10046000C8BD34C0E730E9F0E83019F1E43049F5AF
:1004700080918000806280938000D0938B00C09335
:100480008A0024C084B5806884BDC7BD1FC0809128
:100490008000806880938000D0938900C09388009A
:1004A00015C08091B00080688093B000C093B30005
:1004B0000DC08091B00080628093B000C093B40002
:1004C00005C0C038D1050CF0B5CFAFCFDF91CF91CB
:1004D0001F9108953FB7F8948091350190913601AE
:1004E000A0913701B091380126B5A89B05C02F3FD8
:1004F00019F00196A11DB11D3FBFBA2FA92F982F4A
:100500008827820F911DA11DB11DBC01CD0142E0C4
:10051000660F771F881F991F4A95D1F70895089590
:10052000DC01ED91FD918081ED91FD919081ED9146
:10053000FD916C9163708E2309F064609F2309F034
:100540006860EDEAF2E0E60FF11D659565956D9343
:100550006D917D918D919D91099423C01AC012C017
:1005600016C010C01EC009C014C013C006C019C0F8
:1005700009C00DC007C00DC014C06250704080405B
:1005800090400BC0615070408040904006C06E5F4C
:1005900001C06F5F7F4F8F4F9F4F9E938E937E93CF
:1005A0006E93089580912E0190912F010C949002EA
:1005B00080912C0190912D010C9490020E94A8062C
:1005C0008230A1F0833029F570932F0160932E01C2
:1005D00082ED92E090930301809302018091690083
:1005E000837F846080936900E99A11C070932D0124
:1005F00060932C0188ED92E09093010180930001BB
:10060000809169008C7F816080936900E89A81E025
:10061000089580E008950F931F93CF93DF93EC012B
:10062000062F142F62E0802F0E94CF0162E0812FFD
:100630000E94CF01802F90E0FC01EA57FF4FE49128
:10064000F0E0EE0FFF1FE859FF4FA591B491B98379
:10065000A883FC01E656FF4F84918C83212F30E064
:10066000F901EA57FF4F9491E92FF0E0EE0FFF1FD9
:10067000E859FF4F459154915B834A83F901E6564F
:10068000FF4FE491ED831F82188619861A86EBE3EB
:10069000FFE13197F1F7EC91E82381E009F480E084
:1006A000FA0120819D81922309F082608E83BE0130
:1006B000802F0E94E0028B87BE01812F0E94E00202
:1006C0002B8590E0820F911D8B87DF91CF911F9139
:1006D0000F9108951F920F920FB60F9211242F932E
:1006E0003F934F935F936F937F938F939F93AF93BA
:1006F000BF93EF93FF938DE491E00E94EF00FF9191
:10070000EF91BF91AF919F918F917F916F915F9189
:100710004F913F912F910F900FBE0F901F90189502
:100720001F920F920FB60F9211242F938F939F93C6
:10073000EF93FF93E0915D01F0915E018081E09184
:100740006301F091640182FD12C090818091660185
:100750008F5F8F7320916701821751F0E0916601DE
:10076000F0E0E35BFE4F958F8093660101C08081CE
:10077000FF91EF919F918F912F910F900FBE0F904E
:100780001F9018951F920F920FB60F9211242F935E
:100790003F938F939F93AF93BF938091310190913B
:1007A0003201A0913301B09134013091300123E046
:1007B000230F2D3720F40196A11DB11D05C026E899
:1007C000230F0296A11DB11D2093300180933101AA
:1007D00090933201A0933301B0933401809135019D
:1007E00090913601A0913701B09138010196A11D79
:1007F000B11D8093350190933601A0933701B093DA
:100800003801BF91AF919F918F913F912F910F90A0
:100810000FBE0F901F9018951F920F920FB60F9258
:1008200011242F933F934F935F936F937F938F93F5
:100830009F93AF93BF93EF93FF93E0910201F091E9
:1008400003010995FF91EF91BF91AF919F918F9116
:100850007F916F915F914F913F912F910F900FBEBC
:100860000F901F9018951F920F920FB60F921124A0
:100870002F933F934F935F936F937F938F939F93A8
:10088000AF93BF93EF93FF93E0910001F0910101CB
:100890000995FF91EF91BF91AF919F918F917F91BA
:1008A0006F915F914F913F912F910F900FBE0F90DD
:1008B0001F901895EDE4F1E01382128288EE93E028
:1008C000A0E0B0E084839583A683B78380E291E0C3
:1008D0009183808385EC90E09587848784EC90E019
:1008E0009787868780EC90E0918B808B81EC90E0FD
:1008F000938B828B82EC90E0958B848B86EC90E0DE
:10090000978B868B118E128E138E148E44E062E0CC
:100910008AEE91E00E940B0348E067E086EF91E0E9
:100920000E940B034BE06AE082E092E00E940B031E
:100930004DE06CE08EE092E00E940B0341E060E04D
:100940008AE192E00C940B03789484B5826084BDB4
:1009500084B5816084BD85B5826085BD85B58160C3
:1009600085BD80916E00816080936E001092810041
:1009700080918100826080938100809181008160FC
:1009800080938100809180008160809380008091BD
:10099000B10084608093B1008091B0008160809349
:1009A000B00080917A00846080937A0080917A0010
:1009B000826080937A0080917A00816080937A00CF
:1009C00080917A00806880937A001092C100E09153
:1009D0005D01F0915E0182E08083E0915901F09128
:1009E0005A011082E0915B01F0915C0183E2808307
:1009F00010926501E0916101F091620186E08083CF
:100A0000E0915F01F0916001808180618083E091DD
:100A10005F01F0916001808188608083E0915F01D7
:100A2000F0916001808180688083E0915F01F091A6
:100A3000600180818F7D8083C4E1D1E06CE0E62E8F
:100A400061E0F62E8E01D8018C910E5F1F4F61E0A0
:100A50000E94CF01F7018081F2E0EF0EF11C61E00E
:100A60000E94CF0121E00C31120769F75FE7852E64
:100A7000912CA12CB12CC12CD12C760100E010E0DE
:100A80000038110544F4C701B601A50194010E9484
:100A90004B06B90112C060E87FE780E090E06C1976
:100AA0007D098E099F09A50194010E944B06CA0188
:100AB000B90161507F4F8F4F9F4F88810E940B0279
:100AC0000E946A022B013C010E946A02DC01CB01F8
:100AD00084199509A609B709883E9340A105B10577
:100AE00098F30F5F1F4FFFEFCF0ED11CE11CF11CDD
:100AF0000F3F110529F68881229660E00E9483014C
:100B000021E0CC31D20709F0B6CF612C712C812CB9
:100B100042E0942EA12CB12C80914B0190914C017C
:100B2000019781F480914B0190914C0180914B0190
:100B300090914C01019709F47BC0C0E0D0E0E12C1A
:100B4000F12C49C0CAEED1E034E0E32E31E0F32EBF
:100B500000E010E08B85823028F4F894CE010E94EA
:100B6000900201C0F8944F81588569857A85789400
:100B7000C801880F991FFC01E75CFE4F208131817D
:100B80002C5F3F4F1901330F440855084215530598
:100B9000640575056CF420813181245031091901F7
:100BA000330F44085508241635064606570644F008
:100BB00077FF41C0F8941F82188619861A867894A8
:100BC0000F5F1F4F2C96B2E0EB0EF11C05301105A4
:100BD00009F0C0CFA7CFC430D10554F58E01000F66
:100BE000111FF801E75CFE4FA081B1812FE730E0D3
:100BF0000E949B06A50194010E944B066701C60C4A
:100C0000D71CF601EC5EFE4FB90180810E940B02F9
:100C1000F801ED5BFE4F60817181F601E45FFE4FEC
:100C200080810E9483012196E2E0EE0EF11CD3CF79
:100C30000E94790171CF4130A2E05A076105710528
:100C400034F0F8948F829886A986BA86B8CFF89443
:100C50004F83588769877A877894FC01E75CFE4F59
:100C600051834083D7015C90C080D18060EB8DE4DC
:100C700091E00E941001652D8DE491E00E94100129
:100C80006C2D8DE491E00E94100161E08DE491E013
:100C90000E94100195CF052E97FB1EF400940E9430
:100CA000620657FD07D00E946A0607FC03D04EF487
:100CB0000C94620650954095309521953F4F4F4FCB
:100CC0005F4F089590958095709561957F4F8F4FF8
:100CD0009F4F0895A1E21A2EAA1BBB1BFD010DC058
:100CE000AA1FBB1FEE1FFF1FA217B307E407F507DC
:100CF00020F0A21BB30BE40BF50B661F771F881FB8
:100D0000991F1A9469F760957095809590959B014D
:100D1000AC01BD01CF010895A29FB001B39FC001F6
:100D2000A39F700D811D1124911DB29F700D811D17
:100D30001124911D08950E948C06B7FF0895821B0F
:100D4000930B0895EE0FFF1F0590F491E02D099489
:0E0D500081E090E0F8940C94AD06F894FFCF8B
:100D5E008F028F020A000B000C000D000000000035
:100D6E00000000000300050006000900000000005E
:0C0D7E0010018C00D900B700CB00570119
:107E0000112484B714BE81FFF0D085E080938100F7
:107E100082E08093C00088E18093C10086E0809377
:107E2000C20080E18093C4008EE0C9D0259A86E02C
:107E300020E33CEF91E0309385002093840096BBD3
:107E4000B09BFECF1D9AA8958150A9F7CC24DD24C4
:107E500088248394B5E0AB2EA1E19A2EF3E0BF2EE7
:107E6000A2D0813461F49FD0082FAFD0023811F036
:107E7000013811F484E001C083E08DD089C08234E0
:107E800011F484E103C0853419F485E0A6D080C0E4
:107E9000853579F488D0E82EFF2485D0082F10E0AE
:107EA000102F00270E291F29000F111F8ED06801E7
:107EB0006FC0863521F484E090D080E0DECF843638
:107EC00009F040C070D06FD0082F6DD080E0C81688
:107ED00080E7D80618F4F601B7BEE895C0E0D1E017
:107EE00062D089930C17E1F7F0E0CF16F0E7DF06D8
:107EF00018F0F601B7BEE89568D007B600FCFDCFD4
:107F0000A601A0E0B1E02C9130E011968C91119780
:107F100090E0982F8827822B932B1296FA010C0160
:107F200087BEE89511244E5F5F4FF1E0A038BF0790
:107F300051F7F601A7BEE89507B600FCFDCF97BE46
:107F4000E89526C08437B1F42ED02DD0F82E2BD052
:107F50003CD0F601EF2C8F010F5F1F4F84911BD097
:107F6000EA94F801C1F70894C11CD11CFA94CF0C13
:107F7000D11C0EC0853739F428D08EE10CD085E9AC
:107F80000AD08FE07ACF813511F488E018D01DD067
:107F900080E101D065CF982F8091C00085FFFCCF94
:107FA0009093C60008958091C00087FFFCCF809118
:107FB000C00084FD01C0A8958091C6000895E0E648
:107FC000F0E098E1908380830895EDDF803219F02E
:107FD00088E0F5DFFFCF84E1DECF1F93182FE3DFCA
:107FE0001150E9F7F2DF1F91089580E0E8DFEE27F6
:047FF000FF270994CA
:027FFE00040479
:0400000300007E007B
:00000001FF